:100000000080012075090000B9090000B70900004F
:10001000B9090000B9090000B9090000000000009A
:10002000000000000000000000000000B90900000E
:10003000B909000000000000B9090000B90900007A
:10004000B9090000B9090000B9090000B9090000A8
:10005000B9090000B9090000B9090000B909000098
:10006000B9090000B9090000B9090000B909000088
:10007000B9090000B9090000B9090000B909000078
:10008000B9090000B9090000B9090000B909000068
:10009000B9090000B9090000B9090000B909000058
:1000A000B9090000B9090000B9090000B909000048
:1000B000B9090000B9090000B9090000B909000038
:1000C000B9090000B9090000B9090000B909000028
:1000D000B9090000B9090000B9090000B909000018
:1000E000B9090000B9090000B9090000B909000008
:1000F000B9090000B9090000B909000000000000BA
:10010000B909000000000000B9090000B9090000A9
:10011000B9090000B9090000B9090000B9090000D7
:10012000B9090000B9090000B9090000B9090000C7
:10013000B9090000B9090000B9090000B9090000B7
:10014000B9090000B9090000B9090000B9090000A7
:100150000348044B834202D0034B03B11847704756
:100160003801002038010020000000000548064B3F
:100170001B1AD90F01EBA301491002D0034B03B1A5
:1001800018477047380100203801002000000000A7
:1001900010B5064C237843B9FFF7DAFF044B13B1CF
:1001A0000448AFF300800123237010BD3801002004
:1001B00000000000D81B000008B5054B1BB1054925
:1001C0000548AFF30080BDE80840FFF7CFBF00BF90
:1001D000000000003C010020D81B00003C4A1368CE
:1001E00043F48033136000230133394A126812F458
:1001F000003F03D14FF6FF729342F5D1344B1B6899
:1002000013F4003F00D1FEE7314BDA6942F080522F
:10021000DA6130490A6842F440420A605A685A601A
:100220005A685A605A6842F480625A605A6822F0EA
:10023000C04222F470125A605A6842F0005242F4EE
:1002400054125A60DA6A22F0804222F4873222F491
:10025000FF7222F00102DA62DA6A42F4833242F07B
:100260004902DA621A6842F080621A60184B1B6811
:1002700013F0006FFAD0164A136843F080731360CE
:10028000134B1B6813F0007FFAD0124A136843F433
:10029000803313600F4B5B6813F4803FFAD00D4A34
:1002A000136843F4003313600A4B5B6813F4003F98
:1002B000FAD0074B5A6822F003025A605A6842F09B
:1002C00002025A60024B5B6813F0080FFAD07047C5
:1002D000001002400070004008B5FFF77FFF08BD26
:1002E00000B583B01F4A136843F0010313601D4B30
:1002F0001B6813F0020FFAD01A4A536843F08003C8
:1003000053600023019302E0019B01330193019BA1
:100310004F2BF9D9134A536843F0900353600023DD
:10032000019302E0019B01330193019B4F2BF9D90B
:100330000C4B5A6822F003025A601A6822F0A85245
:1003400022F410221A604FF47F029A601A6822F495
:1003500080221A6000225A60DA62FFF7BDFF03B004
:100360005DF804FB001002400B4629B1032841D878
:10037000DFE800F003132D3EFEE700224A71CA7148
:100380008A7140F2FF3159811A725A7002219970B4
:10039000DA701A715A721A7070470122CA810022EB
:1003A0000A740A810A804A808A80CA808A814A81C6
:1003B000704799180020C8720132D2B2072AF8D9C2
:1003C00000229A725A601A725A721A60704700229A
:1003D000F4E799180020C8720132D2B2072AF8D97E
:1003E00000229A725A601A72DA745A721A6070474E
:1003F0000022F3E7FEE7036823F0020303600368CB
:1004000043F0010303604FF6FF7300F1040C4268F0
:1004100012F0010F02D10BB1013BF6E7436813F074
:10042000010F70D00A784B781B0603F0407343EA43
:1004300082738A78120402F470221343CA78120578
:1004400002F4E00213434A89013AC2F3090213435A
:10045000C3610B79012B2DD0036823F08003036067
:100460004B79012B2BD0036823F0400303608B7979
:10047000012B29D0036823F020030360CB79012BE3
:1004800027D0036843F0100303600B7A012B25D0BB
:10049000036843F0080303604B7A012B23D0036801
:1004A00023F004030360036823F0010303604FF6A5
:1004B000FF731EE0036843F080030360D0E7036826
:1004C00043F040030360D2E7036843F02003036076
:1004D000D4E7036823F010030360D6E7036823F032
:1004E00008030360D8E7036843F004030360DAE716
:1004F000013BDCF8002012F0010F01D0002BF7D1F6
:100500001BB900207047002070470120704710B4CD
:1005100000EB0113D3F8B04104F004041472DCBB07
:10052000D3F8B041640D1460D3F8B04104F0020474
:100530005472D3F8B441C4F30724D474D3F8B4414B
:1005400004F00F049472D3F8B841D472D3F8B841D0
:10055000C4F307241473D3F8B841C4F307445473A5
:10056000D3F8B841240E9473D3F8BC41D473D3F8B4
:10057000BC41C4F307241474D3F8BC41C4F307444A
:100580005474D3F8BC311B0E937451B9C36843F053
:100590002003C36010BC7047D3F8B041E408546036
:1005A000C2E7036943F020030361F3E743690B43A8
:1005B0004361704770B501F00F0E11F0100F03D0BA
:1005C000042A03D04EEA020E002209E04EF0030E88
:1005D000C26B1A43C263F7E744610560013292B20D
:1005E000072A14D8012494401C40F7D006689500CF
:1005F0004FF00F0C0CFA05FC26EA0C060EFA05F576
:1006000035432829E8D04829E7D10461E5E70822E5
:1006100003E044614560013292B20F2A1AD84FF0CC
:10062000010C0CFA02FC1CEA0304F4D04568A2F1A8
:10063000080C4FEA8C0C0F2606FA0CF625EA060584
:100640000EFA0CFC4CEA05052829E2D04829E1D134
:100650000461DFE770BD000040F0BF6040F400308F
:10066000014BD860704700BF00ED00E070B5054653
:100670000E461446274BDB6803F4E063B3F5E06FE6
:1006800025D0244BDB6803F4E063B3F5C06F38D0AA
:10069000204BDB6803F4E063B3F5A06F34D01D4B4F
:1006A000DB6803F4E063B3F5806F30D0194BDB688F
:1006B00003F4E063B3F5407F02D10023042208E095
:1006C0004FF4A060FFF7C8FF02231A4601E004239D
:1006D0000022C2F104029640C3F104030F2222FA61
:1006E00003F31C4034432401E4B20B4A531983F84A
:1006F000004305F01F016D0901238B4042F82530AE
:1007000070BD03230122E4E702231A46E1E7012337
:100710000322DEE700ED00E000E100E0830903F1E1
:10072000804303F504331A6800F01F000121814063
:100730000A431A607047026802F441520B681A4378
:100740004B681A438B681A43CB681A430B691A43E8
:100750004B691A438B6913430360C36923F4006335
:10076000C3617047036843F040030360704741630F
:10077000704708B50146406BFFF73DFE08BD08B560
:10078000406BFFF713FF08BD10B504460B46024649
:100790000021586BFFF7BBFE204610BD704710B517
:1007A0000446084611461A46029B23606060A16019
:1007B000E260FFF7FFFE204610BDC161704708B53B
:1007C0000146C069FFF7B7FF08BD08B5C069FFF76C
:1007D000C9FF08BD30B5C3B0554C4FF4006300935A
:1007E0000323182221463EA8FFF7D9FF4FF4805378
:1007F00000930323482221463AA8FFF7D0FF4D4932
:100800002CA8FFF7B4FF03238DF8B0300823ADF810
:10081000BA3000248DF8B1400B238DF8B230012599
:100820008DF8B3508DF8B4408DF8B5508DF8B650B2
:100830008DF8B7508DF8B8408DF8B9502CA8FFF757
:1008400098FF224621461420FFF710FF02212CA812
:10085000FFF795FF27A8FFF7A1FFADF8AA50ADF865
:10086000A840ADF8A640ADF89C40ADF89E40ADF86C
:10087000A040ADF8A240ADF8A4408DF8AC501DA941
:100880000220FFF771FD06E004F584736B44FF223C
:1008900003F8892C0134072CF6DD08248DF87E40FE
:1008A000234D2023009303230422294619A8FFF790
:1008B00076FF4023009303231822294615A8FFF74B
:1008C0006EFF009403230422294611A8FFF767FF57
:1008D000194909A8FFF771FF002309930C930F949E
:1008E00001220E920D930B930A9309A8FFF767FF5D
:1008F00009A8FFF76AFF15E02CA902A8FFF744FF3B
:1009000022AC0DF1080CBCE80F000FC4DCF800307D
:1009100023600A4B00221A7008E000BF0133084A26
:100920009342FADB054B1B78012BE5D00023F6E759
:1009300000080140006400400030014054010020E4
:100940008096980008B540F20460FFF7E7FE40F299
:100950000260FFF7E3FE4FF4C060FFF7DFFE40F2F6
:100960001970FFF7DBFE40F20C60FFF7D7FEFFF7D0
:1009700031FFFEE7FFF7B4FC104C114DAC420ADA30
:1009800021686268A3689B00043BA2BFC858D0508E
:10099000FAE70C34F2E70B4B0B4CA34209DA196867
:1009A0005A6892000020043AA4BF8850FBE708333D
:1009B000F3E7FFF7C7FFFEE7FEE70000981C000023
:1009C000A41C0000A41C0000A41C0000704700BF71
:1009D000704700BF024B13B1024800F005B87047E2
:1009E00000000000F5090000002301461A461846E1
:1009F00000F014B838B5074D074C2C1BA41005D0D7
:100A0000013C55F8043D9847002CF9D1BDE8384029
:100A100001F0DCB838010020340100202DE9F84352
:100A20001B4D0646286898460F469146FFF7CEFFB5
:100A3000184B1C681CB3286865681F2D22DC4EB952
:100A40006B1C0235636044F82570FFF7C1FF00207E
:100A5000BDE8F88304EB85010123C1F88890D4F840
:100A60008821AB401A43022EC4F88821C1F80881BE
:100A7000E6D1D4F88C211A43C4F88C21E0E7064C67
:100A80001C60D8E7FFF7A4FF4FF0FF30E0E700BF9E
:100A900028010020980200209C02002003685A00D0
:100AA0004CBF43F0004323F000431844704700BF9D
:100AB0002DE9F04759B301F1FF3805461646474680
:100AC0004FF0000A0AEB070101EBD171491005EB69
:100AD000C1094846FFF7E2FF88454FEAC1040346D3
:100AE00010D004F10800B342284407D8FFF7D6FF1E
:100AF0000138B04208D201F1010AE3E78A4506D085
:100B00004F1EDFE7B042F9D84846BDE8F0874FF006
:100B100000094846BDE8F087012809D0022805D021
:100B2000044B00280CBF184600207047024870474D
:100B300002487047E9110000F9110000F1110000AE
:100B400030B5224B83B004468D1E43B301A928461D
:100B5000AFF30080F0B101992A46FFF7A9FF0146E3
:100B6000C0B1FFF79BFF4B68A064012B2BD0002B7B
:100B700001F1040025DBFFF791FF002323650368E3
:100B8000E064002B12DBFFF789FF0346002023619E
:100B900003B030BD00230920236103B030BD0C4BEE
:100BA0000C49C91AC91018460191D5E7C3F303606F
:100BB000FFF7B2FF031E0CBF09200020236103B022
:100BC00030BD0123DAE700230520E0E70000000044
:100BD000081C0000981C00000368DA0710B50446E2
:100BE00006D49B0700F1500009D500F095FC23685E
:100BF000590709D51A070ED5DB0613D510BD00F02D
:100C000083FC23685907F5D404F1D80000F08CFC6C
:100C100023681A07F0D404F5AC7000F08DFC23684B
:100C2000DB06EBD404F5EC70BDE8104000F0C8BC66
:100C30000346006800B11844704700BF704700BF0A
:100C400070B504460E46316C2046FFF779FF054625
:100C500088B9326C62612369324621460120984787
:100C60000828F0D0072806D12846316CFFF7E6FFA8
:100C7000301D00F03DFC00F0ABFE00BF2DE9F04759
:100C800001F1040CC768D0F8188006469146BCE80C
:100C90000F00ADF5767D03AC0FC4BCE80F000FC4A8
:100CA000BCE80F000FC49CE80F0002AD4FF0000E2F
:100CB00084E80F00C5F800E021E02B6C73614FF46D
:100CC000F47229467CA800F0CFFE33697CAA314635
:100CD000504698478A9BAB644946CDE90058824606
:100CE000334601203246B847814630BB4FF4F47298
:100CF0007CA9284600F0B8FEBAF1080F1AD1296C79
:100D00003046FFF71DFF09F1090904465FFA89FA29
:100D10000028D2D0AB6BAB643246CDE900583346E5
:100D20004AF010010120B84738B920460DF5767D0C
:100D3000BDE8F087BAF1070F05D0092420460DF56C
:100D4000767DBDE8F0874846296CFFF777FF03A85A
:100D500000F0CEFBF0B5CB6B0B6401F1040C0E463A
:100D60000546BCE80F00FBB001AC0FC4BCE80F00A7
:100D70000FC4BCE80F000FC49CE80F004FF0FF3712
:100D800084E80F00009706E02B696A4629469847D9
:100D90000828044608D110992846FFF7D1FE0028FC
:100DA000F2D009207BB0F0BD6846FFF715FF062C96
:100DB000F7D131462846FFF743FF00BFC160D96B2A
:100DC0008261196400221946FFF758BF70B5C668E2
:100DD00043690B64AEB903690A4604460D460146F1
:100DE00002209847072805D008280FD12946204619
:100DF000FFF726FF3046296CFFF720FF281D00F083
:100E000077FB0122FFF73AFF00F0E2FD00F0E0FD82
:100E1000C26822B1CA6B0A640022FFF72FBFFFF736
:100E200099BF00BF052915D8DFE801F00A031403B4
:100E3000030501207047009A436C1360002070473F
:100E400043B90F2A06D800EB820200205368009AAB
:100E5000136070470220704700B585B00A46002332
:100E600003A900911946FFF7DDFF039805B05DF86F
:100E700004FB00BF052915D8DFE801F00A031403BD
:100E8000030501207047009B1B68436400207047E6
:100E900043B90F2A06D8009B00EB82021B685360FF
:100EA000002070470220704710B584B0002303ACC7
:100EB000039200940A461946FFF7DCFF04B010BD08
:100EC00070B5D36B136402F1040C05460C46BCE804
:100ED0000F00ADF5107D0DF15C0EAEE80F00BCE823
:100EE0000F00AEE80F00BCE80F00AEE80F009CE872
:100EF0000F004FF0FF368EE80F00169610E0FFF758
:100F0000D3FF214616A8A847034616AA082069461B
:100F100083B9049B9847052806460CD0092809D0B8
:100F200026996846FFF70CFE03460C216A4616A870
:100F3000002BE4D0092616A8FFF74EFE30460DF52B
:100F4000107D70BD2DE9F04F1646CA6C89B00D4674
:100F500052F8041B069200F0030C002B79D00C0C05
:100F60008DF81D400904E4B2059102EB84020221D0
:100F70008DF81C10296DBCF1020F08BFAA6B11F08F
:100F8000010809D005A9304600F0A4FB002856D17D
:100F9000082009B0BDE8F08F1768002FF2D000F0EC
:100FA0000801CDE90118E3469A46BAF1020F4CD088
:100FB0001788548802F10409AA6C24F001030F2158
:100FC000304603EB0208FFF747FF80453BD827F088
:100FD000010202EB0803834294BF00230123640053
:100FE00004F0020407F001072743012F4ED0022F1F
:100FF00035D027BBBBF1000F02D0002B40F0D380CF
:1010000009F104021768002FCFD105A93046DDF899
:10101000088000F05FFB90B9B8F1000FB8D00F2145
:101020003046FFF719FF0E2102463046FFF73CFF1E
:101030006C4A0F213046FFF737FF072000E00920F8
:1010400009B0BDE8F08F0023C9E7546802F1080930
:10105000B2E7090205918DF81D30032188E7D9F820
:10106000004024F00048BBF1000F47D12BB1019B99
:10107000002B5CD0B8F1000F59D0002C01DA09F137
:10108000040908F1010209EB8202BBE7BBF1000F82
:101090001CD1C3B1D9F80430D9F80020991C4FEA0B
:1010A000D272CCD005F158040133049400F08E8044
:1010B00009F10400FFF7BCFD04AB01462846AFF37D
:1010C0000080002859D109F108029BE70D21304624
:1010D000FFF7C2FE2C6A8442F5D1AB6A9945F2D182
:1010E0004846FFF7DBFC0F2102463046FFF7DCFEE7
:1010F0002A4600213046FFF7D7FE9EE70D213046F5
:10110000FFF7AAFE2F6A8742B7D1AB6A9945B4D1DF
:1011100000240423C5E90B434B44C5F828806B63C6
:10112000D9F80030A34258DB01230293A9E705F167
:101130005803CDF80CB009F10407B34600241E464D
:101140000BE038460496FFF773FD0022014604AB1E
:101150002846AFF300800437F8B9444504F1010490
:10116000EFD10D215846FFF777FE049BC5F8289074
:101170000246C5E90823062062E704460D213046F1
:10118000FFF76AFE049E2862022C04BFEE6205F19E
:101190002C06C5E90969062052E75E46D9F80040E9
:1011A000DDF80CB069E74846FFF778FC09F1040365
:1011B0000446AB632846AFF3008000283FF43FAFFE
:1011C00022460F213046FFF76FFE36E730460D21ED
:1011D000FFF742FE26462862DBE708F1010209EB31
:1011E00082007EE7000000000023FFF7ABBE00BFD7
:1011F0000123FFF7A7BE00BF0223FFF7A3BE00BF76
:101200002DE9F0410646C4B01446052900F2D88005
:10121000DFE811F012002D00D6006C0091000600EE
:10122000836B002C40F0CC8053F8042B4264836322
:10123000002044B0BDE8F081002B40F0C180856BF8
:101240001FFA84FC012006F1040E00FA03F111EAF2
:101250000C0F2A4604D052F8041B4EF823101546F2
:101260000133102BF1D1A704E2D4B563E0E7012BE1
:101270004FEA1447A4B200F08380052B40F0A08011
:1012800007EB0408B8F1200F00F29A800F2F40F20C
:101290009980002CCCD00268500700F1188101938E
:1012A00002AD284600F044F94FEA440CA7F11000C3
:1012B000B16B019B0CF1FF3C05EBC0000CF1010C84
:1012C000043801EB8C0251F8044B40F8044F914272
:1012D000F9D1012B00F0DE800F2FB16302D822A8D4
:1012E00000F01AF9284600F01FF9A1E7032B67D197
:1012F000A7B207EB1443102B4FEA144460D80368DD
:10130000190700F1BF8022AD284600F037F97A00B6
:10131000B06B05EBC404531E42B1011B625844F884
:10132000042B013B5A1CF9D100EBC700B0632846DF
:1013300000F002F97CE7002B42D1102C40D8036862
:10134000DD0600F1978022AD284600F043F9B76B27
:10135000294600234FF0010C0CFA03F222423846D2
:1013600003F1010303D050F8042B0A600746042B55
:1013700001F10401F0D1B763284600F021F957E7E5
:101380003A19102A1CD8102F1AD00268D00708D595
:10139000304622F0030240F8502B019300F0B8F8D9
:1013A000019B019322AD284600F0B2F8B26B019B7D
:1013B000002C58D10432B263284600F0A5F837E774
:1013C000022036E7B8F1100F026865D9D40772D54C
:1013D00022F0010242F0020240F8502B019300F08B
:1013E0009FF83268019B12F0040F66D122AD2846A7
:1013F000019300F095F802A800F09AF8C7F11001E7
:101400004900B26B019BA8F1100C4C1E05EBC70004
:101410000134043802EB840152F8044B40F8044FC5
:101420008A42F9D1BCF1000F5AD0102F384638BF8C
:1014300010204FEA4C0C103802AD0CF1FF3C05EBCC
:10144000C0003BE7304622F0010242F0020240F8C1
:10145000502B22AD019300F063F8284600F060F8AD
:10146000B26B24B3019B6400013C05EBC7004FF055
:10147000000CCDE723F01003036000F5EC7000F0E2
:10148000A9F860E723F00803036000F5AC7000F0F2
:1014900075F838E722AD8DE7D107D3D422AD2846C1
:1014A000019300F03DF8B26B019B002CDBD1284684
:1014B00000F032F8BCE6540798D5304622F004021A
:1014C00040F8D82B019300F033F8019B8EE73046AB
:1014D00022F0040240F8D82B019300F029F8DFE64F
:1014E000012B3FF467AF0F2FB2633FF6A1AEDEE7EB
:1014F00000F1340191E838009C46A6464CF8045DA2
:1015000090E8FF0FE54600BD90EC210B704700BF4F
:1015100080EC210B704700BF90EC200B704700BFA0
:1015200080EC200B704700BFD0EC200B704700BF51
:10153000C0EC200B704700BFF0EC0201F0EC021190
:10154000F0EC0221F0EC0231F0EC0241F0EC02513F
:10155000F0EC0261F0EC0271F0EC0281F0EC02912F
:10156000F0EC02A1F0EC02B1F0EC02C1F0EC02D11F
:10157000F0EC02E1F0EC02F1704700BFE0EC020198
:10158000E0EC0211E0EC0221E0EC0231E0EC02417F
:10159000E0EC0251E0EC0261E0EC0271E0EC02816F
:1015A000E0EC0291E0EC02A1E0EC02B1E0EC02C15F
:1015B000E0EC02D1E0EC02E1E0EC02F1704700BFA8
:1015C000B0FC0181B0FC0191B0FC01A1B0FC01B103
:1015D000704700BFA0FC0181A0FC0191A0FC01A10B
:1015E000A0FC01B1704700BFEC4600B52DE90050EA
:1015F0002DE9FF1F4FF000032DE90C0001A9FFF7B3
:10160000A9FBDDF840E012B0704700BFEC4600B522
:101610002DE900502DE9FF1F4FF000032DE90C00CC
:1016200001A9FFF7D3FBDDF840E012B0704700BF1F
:10163000EC4600B52DE900502DE9FF1F4FF00003E7
:101640002DE90C0001A9FFF7E3FBDDF840E012B043
:10165000704700BFEC4600B52DE900502DE9FF1F93
:101660004FF000032DE90C0001ABFFF7A7FBDDF8FD
:1016700040E012B0704700BFEC4600B52DE90050C5
:101680002DE9FF1F4FF000032DE90C0001AAFFF721
:1016900017FCDDF840E012B0704700BF027A034645
:1016A0007AB9427AA2B14168013A10B4427208682C
:1016B00003220C1D1A7202025C60000E10BC1A603C
:1016C00070470068013A1A7202021A60000E7047F1
:1016D000B02070472DE9F043064685B00D464FF027
:1016E00000082846FFF7DAFFB028044600F01C8106
:1016F00007065BD500F0F003A02B1AD030D8802B62
:1017000000F08280902B27D100F00D030D2B23D009
:1017100002AF002300F00F02194600973046FFF792
:1017200081FB002300970D2219463046FFF7A2FBEC
:10173000D7E7C34303F007034FF47F621A41010761
:1017400002F47F6201D542F48042002319463046FC
:10175000FFF756FD0028C4D0092005B0BDE8F0838E
:10176000B02B68D0C02B3DD1C62800F0CA80C72856
:1017700000F0DF8000F0F803C02B00F0EC80C828F8
:1017800000F0F780C928E7D12846FFF787FF02035A
:1017900000F00F0002F47022013002430121052302
:1017A0003046FFF72DFD00289BD0D5E78300DBB244
:1017B0001F1D0DF1080900231946CDF800900D22D8
:1017C0003046FFF72FFB029BCDF8009060064CBF20
:1017D000DF1BFF1800230D22194630460297FFF742
:1017E00049FB7EE700F0F803D02BB5D100F00702EB
:1017F0000132052342F4002201213046FFF700FDAB
:1018000000283FF46EAFA7E72846FFF747FF240202
:101810002043B0F5004F9FD004010023A2B2194627
:101820003046FFF7EDFC002896D114F4004F18BFA6
:101830004FF0010855E7A0F1B103042B00F2B58089
:10184000DFE803F05529160C030003AA00230092D9
:1018500019460D223046FFF7E5FA42E700231A4603
:1018600005213046FFF7CCFC00283FF43AAF73E780
:101870002846FFF713FF020300F00F00013002F4C7
:1018800070220123024319463046FFF7B9FC0028B5
:101890003FF427AF60E700230DF108090D22194638
:1018A000CDF800903046FFF7BDFA2846FFF7F6FE68
:1018B0000206029C4FF002070BD500F07F00B840F3
:1018C000044428460294FFF7E9FE030607F10707E0
:1018D000F3D4B840002304F501740444CDF800901B
:1018E0000D22194630460294FFF7C4FAF9E628465D
:1018F000FFF7D4FE431EDBB20E2B02467FF625AF68
:101900002AE72846FFF7CAFE020300F00F00013065
:1019100002F470220323024319463046FFF770FC9D
:1019200000283FF4DEAE17E7B8F1000F2DD00020FD
:1019300013E72846FFF7B2FE431EDBB20E2B02462A
:101940003FF60AAF002304213046FFF759FC002878
:101950003FF4C7AE00E700F00F020132032342F468
:10196000202219463046FFF74BFC00283FF4B9AE61
:10197000F2E62846FFF792FE00F0F00200F00F03B7
:101980001032013343EA023208E702AC43464146D3
:1019900000940E223046FFF745FA0F22009443468A
:1019A00041463046FFF766FAC1E700F0FC03B42B6E
:1019B0003FF4D2AE00F007020132012342F40022CC
:1019C00019463046FFF71CFC00283FF48AAEC3E6F8
:1019D00008B5062000F004F8012000F0EFF800BF81
:1019E00038B5144B1F281D681ED8D5F81821044699
:1019F00062B152F820304BB1012B05D0591C0FD0E9
:101A0000002142F820109847002038BD284600F0F9
:101A100029F8224601462846BDE8384000F00CB8B7
:101A200016232B60012038BD16232B604FF0FF30AA
:101A300038BD00BF0000002070B50C46084D0346BD
:101A40000026204611461C462E6000F0AFF8431CCD
:101A500000D070BD2B68002BFBD0236070BD00BF91
:101A60009002002000F09AB8844641EA000313F087
:101A700003036DD1403A41D351F8043B40F8043B95
:101A800051F8043B40F8043B51F8043B40F8043B58
:101A900051F8043B40F8043B51F8043B40F8043B48
:101AA00051F8043B40F8043B51F8043B40F8043B38
:101AB00051F8043B40F8043B51F8043B40F8043B28
:101AC00051F8043B40F8043B51F8043B40F8043B18
:101AD00051F8043B40F8043B51F8043B40F8043B08
:101AE00051F8043B40F8043B51F8043B40F8043BF8
:101AF00051F8043B40F8043B403ABDD2303211D398
:101B000051F8043B40F8043B51F8043B40F8043BD7
:101B100051F8043B40F8043B51F8043B40F8043BC7
:101B2000103AEDD20C3205D351F8043B40F8043B97
:101B3000043AF9D2043208D0D2071CBF11F8013B95
:101B400000F8013B01D30B8803806046704700BF5B
:101B5000082A13D38B078DD010F003038AD0C3F16A
:101B60000403D21ADB071CBF11F8013B00F8013B4C
:101B700080D331F8023B20F8023B7BE7043AD9D30B
:101B8000013A11F8013B00F8013BF9D20B780370E0
:101B90004B7843708B78837060467047024B5822B5
:101BA0001A604FF0FF30704790020020024B58221D
:101BB0001A604FF0FF30704790020020FEE700BF30
:101BC000F8B500BFF8BC08BC9E467047F8B500BF2A
:101BD000F8BC08BC9E4670471000000000000000E2
:101BE000017A5200027C0E011B0C0D001400000053
:101BF0001800000074FEFFFF340100000002710AAB
:081C0000430B0000000000008E
:101C08006CEDFF7FB0B0B080BCEDFF7F010000003D
:101C180028EFFF7FB0A90280B8EFFF7FB0B0A8809F
:101C280008F0FF7F0100000010F0FF7FB0B0AA802D
:101C380044F0FF7FAE75B28014F1FF7FAB3F3A806E
:101C480074F1FF7F010000007CF1FF7FB0B0AA8033
:101C5800B8F1FF7F0100000060F2FF7FAA0FB28099
:101C6800DCF2FF7FB0AF088078F5FF7F010000004D
:101C780088F5FF7FAC3F038070F8FF7F010000000C
:101C88004CFAFF7FB0AD048040FDFF7F01000000EB
:0C1C9800A41C0000000000204E00000012
:101CA400080000200000000000000000580100208F
:101CB400C0010020280200200000000000000000F5
:101CC4000000000000000000000000000000000010
:101CD4000000000000000000000000000000000000
:101CE40000000000000000000000000000000000F0
:101CF40000000000000000000000000000000000E0
:101D040000000000000000000000000000000000CF
:101D140000000000000000000000000000000000BF
:101D240000000000000000000000000000000000AF
:101D3400000000000000000000000000000000009F
:101D440001000000000000000E33CDAB34126DE63C
:101D5400ECDE05000B0000000000000000000000A5
:101D6400000000000000000000000000000000006F
:101D7400000000000000000000000000000000005F
:101D8400000000000000000000000000000000004F
:101D9400000000000000000000000000000000003F
:101DA400000000000000000000000000000000002F
:101DB400000000000000000000000000000000001F
:101DC400000000000000000094020020D50900007B
:081DD400B901000091010000BB
:04000003000009757B
:00000001FF
